:020000040800F2
:1000000000000120DD020008E5020008E902000806
:10001000ED020008F1020008F502000800000000EF
:10002000000000000000000000000000F9020008CD
:10003000FD0200080000000001030008050300089D
:100040000903000809030008090300080903000860
:100050000903000809030008090300080903000850
:100060000903000809030008090300080903000840
:100070000903000809030008090300080903000830
:100080000903000809030008090300080903000820
:100090000903000809030008090300080903000810
:1000A0000903000809030008090300080903000800
:1000B00009030008090300080903000809030008F0
:1000C00009030008090300080903000809030008E0
:1000D00009030008090300080903000809030008D0
:1000E00009030008090300080903000809030008C0
:1000F00009030008090300080903000809030008B0
:10010000090300080903000809030008090300089F
:10011000090300080903000809030008090300088F
:10012000090300080903000809030008090300087F
:10013000090300080903000809030008090300086F
:10014000090300080903000809030008090300085F
:10015000090300080903000809030008090300084F
:10016000090300080903000809030008090300083F
:100170000903000809030008090300080000000043
:10018000090300080903000809030008090300081F
:10019000090300080903000809030008090300080F
:1001A00009030008090300080903000800B583B02B
:1001B00001F028FB384B394A1360394A136039493A
:1001C0000CE00A684B6801F10C04886803E01168D0
:1001D0001960043304329842F9D82146324B9942CF
:1001E000EFD32E4B1A68314B9A4204D12C4B1A682C
:1001F0002F4B9A4200D0FEE7274B2E4A13602E4A1F
:1002000013602E4B0AE0194651F8082B5B6802E098
:100210000020106004329A42FAD30B46284A9342D7
:10022000F1D3244B1B6813B9234B1B6803B1FEE7C2
:1002300001F0B4FB694601A801F064FA214C224B9D
:100240001C1BA410002504E01E4B53F825309847D2
:100250000135AC42F8DC1D4C1D4B1C1BA4100025C5
:1002600004E01A4B53F8253098470135AC42F8DCCE
:100270000099019801F0C4FB0546164C164B1C1B57
:10028000A41004E0013C134B53F824309847002C91
:10029000F8DC284601F008FABABADECA00000020ED
:1002A000840000200C030008240300087856341250
:1002B000325476988800002064010020240300084E
:1002C0003403000834030008340300083403000832
:1002D00034030008340300083403000808B5FFF7AE
:1002E00065FF00BFFEE700BFFEE700BFFEE700BFFF
:1002F000FEE700BFFEE700BFFEE700BFFEE700BF6E
:0C030000FEE700BF704700BFFEE700BF33
:10030C00402500080000002088000020402500083F
:10031C000000001000000010880000206801002080
:08032C000000001000000010A9
:10034000704700BF10B5044600F088FE064BA3FBC3
:100350000030800900F08AF8002221464FF0FF307B
:1003600000F042F8002010BDD34D621008B50B4BD1
:100370001A6842F400721A601A6842F480621A60C5
:100380001A6842F480721A60032000F00FF80F2000
:10039000FFF7D8FFFFF7D4FF002008BD003C024064
:1003A000014B1868704700BF8C00002010B5044650
:1003B000C31E042B03D9A421094801F0ABF9094A53
:1003C000D36823F4E0631B041B0C240204F4E064F0
:1003D000234343F0BF6343F40033D36010BD00BF39
:1003E0005823000800ED00E070B505460E4614469F
:1003F0000F2A03D9BC211A4801F08CF90F2E03D91A
:10040000BD21174801F086F9164BDB68C3F30223C0
:10041000C3F10701042928BF04211A1D062A01D9A6
:10042000033B00E00023012202FA01F101393140CF
:10043000994002FA03F3013B1C400C43002D06DAFD
:1004400005F00F052401E4B2074B5C5570BD240193
:10045000E4B205F1604505F5614585F8004370BDDE
:100460005823000800ED00E014ED00E00138B0F181
:10047000807F0AD2064B5860F021064A82F823108A
:100480000020986007221A6070470120704700BF63
:1004900010E000E000ED00E010B50446042805D0AF
:1004A00020B14FF4BA71084801F034F9042C05D199
:1004B000064A136843F00403136010BD034A13682F
:1004C00023F00403136010BD5823000810E000E07F
:1004D0002DE9F04780460F460B881BB9C321B3486E
:1004E00001F018F97B68012B22D9112B20D0022BA7
:1004F0001ED0122B1CD0AE4A934219D002F58012A6
:10050000934215D002F58012934211D0A2F5F81251
:1005100093420DD002F58012934209D002F5801269
:10052000934205D0032B03D0C421A04801F0F2F878
:10053000BB68022B03D9C5219C4801F0EBF80025CC
:100540002EE10124AC403E682640B44240F02781B1
:100550007B68022B01D0122B58D13B69002B45D070
:10056000092B43D0002B41D0002B3FD0F3B3EBB38A
:10057000012B3BD03AD0022B38D037D036D0032BCA
:1005800034D0042B32D031D030D0052B2ED02DD00A
:10059000092B2BD0062B29D0092B27D0072B25D0B0
:1005A00024D023D0082B21D020D01FD0092B1DD040
:1005B0001CD00A2B1AD019D00B2B17D00C2B15D00E
:1005C00014D00D2B12D00F2B10D0052B0ED00DD028
:1005D0000CD0082B0AD009D00C2B07D0062B05D045
:1005E0000E2B03D0D621714801F094F8EA080832A6
:1005F00058F8220005F0070399000F238B4020EAEA
:1006000003003B698B40034348F82230D8F80030A0
:100610004FEA450A4FF0030909FA0AF96FEA090996
:1006200003EA09027B6803F0030303FA0AF31343A6
:10063000C8F800307B685A1E012A03D9112B01D05B
:10064000122B1BD1FB68032B03D9E921574801F07A
:1006500061F8D8F8083009EA0302FB6803FA0AF3E4
:100660001343C8F80830D8F8043023EA04047B6840
:10067000C3F30013AB401C43C8F80440D8F80C3057
:1006800009EA0309BB6803FA0AF349EA0303C8F855
:100690000C307B6813F0805F00F08180454A536C1A
:1006A00043F480435364A9088A1C434B53F8220047
:1006B00005F003039B000F229A4020EA02003F4A04
:1006C000904525D002F58062904523D002F58062E6
:1006D000904521D002F5806290451FD002F58062DE
:1006E00090451DD002F5806290451BD002F58062D6
:1006F000904519D002F58062904517D002F58062CE
:10070000904515D002F58062904513D1092212E080
:10071000002210E001220EE002220CE003220AE097
:10072000042208E0052206E0062204E0072202E097
:10073000082200E00A2202FA03F3034302311E4AB0
:1007400042F821301E4B1A68F34302EA030178682D
:1007500010F4803F01D046EA0201194A1160526844
:1007600003EA0201786810F4003F01D046EA020172
:10077000134A5160926803EA0201786810F4801FFE
:1007800001D046EA02010E4A9160D26813407968AE
:1007900011F4001F01D046EA0203094AD360013573
:1007A0000F2D7FF6CEAEBDE8F08700BF8C2300088A
:1007B00000001110003802400038014000000240E3
:1007C000003C014038B5044603680F2B03D9FD21D6
:1007D000B34800F09FFF236813F0010F61D06368F6
:1007E000012B06D9052B04D04FF48171AC4800F0E1
:1007F00091FFAC4B9B6803F00C03042B0AD0A94B70
:100800009B6803F00C03082B0ED1A64B5B6813F416
:10081000800F09D0A34B1B6813F4003F41D06368DD
:10082000012B40F0FF813CE000229F4B1A70FFF744
:10083000B7FD054607E0FFF7B3FD401B41F28833E3
:10084000984200F2F181974B1B6813F4003FF2D1FC
:100850002279954B1A706368012B11D1FFF7A0FD27
:10086000054607E0FFF79CFD401B41F288339842A4
:1008700000F2DC818B4B1B6813F4003FF2D010E0D8
:10088000FFF78EFD054607E0FFF78AFD401B41F2AA
:100890008833984200F2CC81824B1B6813F4003FEE
:1008A000F2D1236813F0020F6ED0E368012B04D954
:1008B0004FF4A1717A4800F02DFF23691F2B04D952
:1008C00040F24311764800F025FF764B9B6813F009
:1008D0000C0F0AD0734B9B6803F00C03082B1DD13F
:1008E000704B5B6813F4800F18D16E4B1B6813F0CC
:1008F000020F03D0E368012B40F09C816948036834
:1009000023F0F8012269F82393FAA3F3B3FA83F3EF
:10091000DBB202FA03F30B43036035E0E3680BB389
:100920000122624B1A60FFF73BFD054605E0FFF729
:1009300037FD401B642800F27F815A4B1B6813F07F
:10094000020FF4D05748036823F0F8012269F82316
:1009500093FAA3F3B3FA83F3DBB202FA03F30B4384
:10096000036011E00022514B1A60FFF719FD0546A4
:1009700005E0FFF715FD401B642800F25F81494B3D
:100980001B6813F0020FF4D1236813F0080F2ED068
:100990006369012B04D94FF4C171414800F0BAFEDC
:1009A000636993B10122424B1A60FFF7F9FC0546D7
:1009B00005E0FFF7F5FC401B642800F24181394B4C
:1009C0005B6F13F0020FF4D011E00022384B1A6075
:1009D000FFF7E6FC054605E0FFF7E2FC401B642854
:1009E00000F230812F4B5B6F13F0020FF4D12368BC
:1009F00013F0040F6FD0A368012B06D9052B04D088
:100A00004FF4D671264800F085FE264A136C43F059
:100A100080531364A2F5E432136843F480731360C7
:100A2000FFF7BEFC054605E0FFF7BAFC401B642853
:100A300000F20A811F4B1B6813F4807FF4D0002260
:100A40001D4B1A70FFF7ACFC054607E0FFF7A8FC4A
:100A5000401B41F28833984200F2F880114B1B6F23
:100A600013F0020FF2D1227A134B1A70A368012BF4
:100A700011D1FFF795FC054607E0FFF791FC401BFD
:100A800041F28833984200F2E380064B1B6F13F06B
:100A9000020FF2D01FE0FFF783FC054616E000BF0F
:100AA000CC230008003802400238024000004742D0
:100AB000800E47420070004070380240FFF770FC23
:100AC000401B41F28833984200F2C480674B1B6F91
:100AD00013F0020FF2D1A369022B04D94FF4F8717D
:100AE000634800F017FEA369002B00F0B5805F4A51
:100AF000926802F00C02082A00F0B080022B7ED12E
:100B0000E3693BB1B3F5800F04D040F2F9115848C6
:100B100000F000FE236A3F2B04D94FF4FD715448C6
:100B200000F0F8FD636AC03BF02B04D940F2FB11E2
:100B30004F4800F0EFFDA36A022B0AD0042B08D027
:100B4000062B06D0082B04D04FF4FE71484800F065
:100B5000E1FDE36A043B0B2B04D940F2FD1144484C
:100B600000F0D8FD0022434B1A60FFF719FC054640
:100B700004E0FFF715FC401B642871D83B4B1B6851
:100B800013F0007FF5D1216A626A47F6C07393FAC9
:100B9000A3F3B3FA83F3DBB202FA03F31943A36AB4
:100BA0005B085A1E4FF4403393FAA3F3B3FA83F36E
:100BB000DBB202FA03F30B43E2691343E26A4FF03C
:100BC000706191FAA1F1B1FA81F1C9B28A4013437F
:100BD00043F00053254A53600122264B1A60FFF769
:100BE000DFFB044604E0FFF7DBFB001B642839D879
:100BF0001E4B1B6813F0007FF5D0002038BD00228B
:100C00001C4B1A60FFF7CCFB044604E0FFF7C8FB5F
:100C1000001B642828D8154B1B6813F0007FF5D102
:100C2000002038BD012038BD032038BD032038BD69
:100C3000032038BD012038BD032038BD032038BD56
:100C4000032038BD032038BD032038BD032038BD44
:100C5000032038BD032038BD002038BD012038BD39
:100C6000032038BD032038BD032038BD00380240C2
:100C7000CC2300086000474270B504460D46036867
:100C8000013B0E2B04D94FF41871874800F042FD48
:100C90000F2D04D940F26121834800F03BFD834BC6
:100CA0001B6803F00F039D4240F28B80EAB27F4B3A
:100CB0001A701B6803F00F039D4240F051812368B6
:100CC00013F0020F1DD0A368A3B1802B12D0902B7C
:100CD00010D0A02B0ED0B02B0CD0C02B0AD0D02B14
:100CE00008D0E02B06D0F02B04D040F277216E48DC
:100CF00000F010FD6E498B6823F0F002A3681343E7
:100D00008B60236813F0010F00F0E8806368022B0A
:100D100004D940F27E21644800F0FCFC6268012A9C
:100D200005D1634B1B6813F4003F0ED11AE1022A70
:100D300005D15F4B1B6813F0007F06D114E15C4BBB
:100D40001B6813F0020F00F0118159498B6823F0E2
:100D5000030313438B60FFF723FB05466368012BF6
:100D60000FD107E0FFF71CFB401B41F2883398428C
:100D700000F2FE804E4B9B6803F00C03042BF1D174
:100D8000ACE0022B17D107E0FFF70AFB401B41F252
:100D90008833984200F2EE80454B9B6803F00C03C9
:100DA000082BF1D19AE0FFF7FBFA401B41F28833A0
:100DB000984200F2E1803E4B9B6813F00C0FF2D199
:100DC0008CE0236813F0020F1DD0A368A3B1802B21
:100DD00012D0902B10D0A02B0ED0B02B0CD0C02B4B
:100DE0000AD0D02B08D0E02B06D0F02B04D040F254
:100DF000C6212D4800F08EFC2D498B6823F0F002AF
:100E0000A36813438B60236813F0010F5ED06368FF
:100E1000022B04D940F2CD21234800F07BFC62680C
:100E2000012A05D1224B1B6813F4003F0ED1A5E027
:100E3000022A05D11E4B1B6813F0007F06D19FE0EC
:100E40001B4B1B6813F0020F00F09C8018498B6845
:100E500023F0030313438B60FFF7A2FA064663688F
:100E6000012B0FD107E0FFF79BFA801B41F288337B
:100E7000984200F289800E4B9B6803F00C03042B10
:100E8000F1D123E0022B1CD106E0FFF789FA801B89
:100E900041F28833984279D8054B9B6803F00C03E4
:100EA000082BF2D112E000BFCC230008003C024026
:100EB00000380240FFF774FA801B41F288339842F1
:100EC00066D8354B9B6813F00C0FF3D1EAB2334B65
:100ED0001A701B6803F00F039D425BD1236813F067
:100EE000040F19D0E36883B1B3F5805F0DD0B3F57B
:100EF000A05F0AD0B3F5C05F07D0B3F5E05F04D0C0
:100F000040F21D31264800F005FC23498B6823F48C
:100F1000E052E36813438B60236813F0080F1AD084
:100F2000236983B1B3F5805F0DD0B3F5A05F0AD01C
:100F3000B3F5C05F07D0B3F5E05F04D04FF449715B
:100F4000174800F0E7FB144A936823F460432169D3
:100F500043EAC10393600F20FFF7F4F9002070BD4E
:100F6000012070BD012070BD012070BD012070BD49
:100F7000032070BD032070BD032070BD012070BD33
:100F8000012070BD012070BD032070BD032070BD25
:100F9000032070BD012070BD00380240003C0240BB
:100FA000CC2300082A4B9B6803F00C03042B4BD086
:100FB000082B01D02748704710B4254B586800F023
:100FC0003F00596801F480014FF4800292FAA2F2C6
:100FD000B2FA82F2D2B231FA02F311D01E4BB3FB55
:100FE000F0F01B4B5A6847F6C0710A4091FAA1F322
:100FF000B3FA83F3DBB222FA03F303FB00F311E04D
:10100000144BB3FBF0F0124B5A6847F6C07402EA77
:10101000040194FAA4F2B2FA82F2D2B221FA02F2F4
:1010200002FB00F30A4A506800F440324FF44030AB
:1010300090FAA0F0B0FA80F0C0B222FA00F00130CD
:101040004000B3FBF0F001E00348704710BC70476C
:10105000003802400024F40000127A0008B5FFF7BF
:10106000A1FF094B9B6803F0F002F02393FAA3F36E
:10107000B3FA83F3DBB222FA03F3044AD35CD84019
:10108000034B186008BD00BF00380240BC230008B5
:101090001C00002008B5FFF7E1FF084B9B6803F434
:1010A000E0524FF4E05393FAA3F3B3FA83F3DBB2C5
:1010B00022FA03F3024AD35CD84008BD003802404C
:1010C000BC23000808B5FFF7C9FF084B9B6803F471
:1010D00060424FF4604393FAA3F3B3FA83F3DBB2B5
:1010E00022FA03F3024AD35CD84008BD003802401C
:1010F000BC2300082DE9F04104460368BF4A93422F
:1011000020D0A2F54C4293421CD002F5806293425B
:1011100018D002F58062934214D002F580629342A7
:1011200010D002F5444293420CD0A2F51C429342E7
:1011300008D002F58062934204D040F22A71B04890
:1011400000F0E8FA6268AF4B9A4204D940F22B7182
:10115000AB4800F0DFFAA3683BB1B3F5805F04D081
:1011600040F22C71A64800F0D5FAE3683BB1B3F524
:10117000005F04D040F22D71A14800F0CBFA236942
:1011800053B1B3F5806F07D0B3F5C06F04D040F210
:101190002E719B4800F0BEFA63694FF6F37213425A
:1011A00000D123B940F22F71954800F0B3FAA3693A
:1011B0006BB1B3F5807F0AD0B3F5007F07D0B3F5EC
:1011C000407F04D04FF4E6618D4800F0A3FAA36994
:1011D000A3B12368894A934210D0A2F54C429342AE
:1011E0000CD002F58062934208D002F54C42934243
:1011F00004D040F23571824800F08CFA21680B6906
:1012000023F44052E36813430B612068C36823F45E
:10121000164222F00C02A16823691943636919433D
:10122000E3690B431343C36021684B6923F44072A5
:10123000A36913434B61E369B3F5004F70D125688F
:1012400003F1804303F510439D4203D003F580630F
:101250009D4232D1FFF736FF00EB800000EB8000AB
:1012600063685B00B0FBF3F3674FA7FB03235B09E5
:101270001E01FFF727FF00EB800000EB8000636892
:101280005B00B0FBF3F8FFF71DFF00EB800000EB05
:10129000800063685B00B0FBF3F3A7FB03235B09EB
:1012A000642202FB13831B013233A7FB0323C3F326
:1012B00043133343AB60BDE8F081FFF7EBFE00EB77
:1012C000800000EB800063685B00B0FBF3F34E4FDF
:1012D000A7FB03235B091E01FFF7DCFE00EB800088
:1012E00000EB800063685B00B0FBF3F8FFF7D2FE11
:1012F00000EB800000EB800063685B00B0FBF3F361
:10130000A7FB03235B09642202FB13831B01323317
:10131000A7FB0323C3F343133343AB60BDE8F08162
:101320002568364B9D4203D003F580639D4232D140
:10133000FFF7C8FE00EB800000EB800063689B00B5
:10134000B0FBF3F3304FA7FB03235B091E01FFF74C
:10135000B9FE00EB800000EB800063689B00B0FBEF
:10136000F3F8FFF7AFFE00EB800000EB800063684E
:101370009B00B0FBF3F3A7FB03235B09642202FB92
:1013800013831B013233A7FB0323C3F343133343FC
:10139000AB60BDE8F081FFF77DFE00EB800000EB65
:1013A000800063689B00B0FBF3F3174FA7FB032398
:1013B0005B091E01FFF76EFE00EB800000EB800072
:1013C00063689B00B0FBF3F8FFF764FE00EB80005E
:1013D00000EB800063689B00B0FBF3F3A7FB0323E3
:1013E0005A09642303FB12831B013233A7FB032337
:1013F000C3F343133343AB60BDE8F08100100140F9
:10140000FC230008A037A0001F85EB512DE9F04117
:1014100005460E4690461C46FEF7C2FF0746B8F149
:10142000000F26D053E0B4F1FF3F22D024B1FEF7E5
:10143000B7FFC01B84421CD22A68D36823F0800304
:10144000D3602A68D36823F02003D3602A68D36866
:1014500023F48073D3602A68536923F00103536136
:10146000012385F83930002385F838300320BDE8A2
:10147000F0812B681B6836EA0303D4D10020BDE855
:10148000F081B4F1FF3F22D024B1FEF789FFC01BE9
:1014900084421CD22A68D36823F08003D3602A6870
:1014A000D36823F02003D3602A68D36823F48073C1
:1014B000D3602A68536923F001035361012385F83F
:1014C0003930002385F838300320BDE8F0812B68DF
:1014D0001B6836EA0303D4D00020BDE8F08100BFCA
:1014E000002865D010B504468369A3B10368314A6A
:1014F000934234D0A2F54C42934230D002F5806240
:1015000093422CD002F54C42934228D0F2212A4833
:1015100000F000F923E00368264A93421FD0A2F5A9
:101520004C4293421BD002F58062934217D002F5E1
:101530008062934213D002F5806293420FD002F58D
:10154000444293420BD0A2F51C42934207D002F5CD
:101550008062934203D0F721174800F0DBF894F83B
:10156000393013F0FF0F02D1204600F023FA022396
:1015700084F839302268D36823F40053D3602046BE
:10158000FFF7B8FD2268136923F4904313612268C2
:10159000536923F02A0353612268D36843F400534C
:1015A000D360002084F83A00012384F8393010BD5C
:1015B0000120704700100140FC23000870B504466C
:1015C0000D461E4690F83930DBB2012B01D0222B9C
:1015D0005BD1002D5BD0002A5BD094F83830012B12
:1015E00059D0012384F83830002384F83A3094F835
:1015F0003930DBB2222B03D1322384F8393002E0B8
:10160000122384F83930A284E28423E0013BE3848E
:10161000A368B3F5805F12D13346002280212046B3
:10162000FFF7F4FE002838D122682B88C3F30803A3
:10163000536023690BB902350CE001350AE03346EB
:10164000002280212046FFF7E1FE40BB23682A7874
:101650005A600135E38C002BD8D13346002240215B
:101660002046FFF7D3FE0346D8B994F83920D2B20A
:10167000322A03D1222284F8392002E0012284F8A0
:101680003920002284F838200CE002230AE00123EC
:1016900008E0012306E0022304E0032302E0032321
:1016A00000E00323184670BDFEE700BF08B50348FD
:1016B00000F052F80120FFF7F7FF00BF2C240008CC
:1016C00008B50D4B1B6813B90C4A0B4B1A600A4B3B
:1016D0001A68C31C23F00303134409498B4206D93B
:1016E00000F0A4F90C2303604FF0FF3008BD02495D
:1016F0000B60104608BD00BF90000020680100206C
:1017000000FC002001230360014B0B60704700BF09
:101710000400002008B50A460146024800F004F81B
:10172000FFF7C4FF802400080FB400B583B004ABFA
:1017300053F8042B01938021064800F0B1F90028EA
:1017400003DD0146034800F059F803B05DF804EBEF
:1017500004B070479800002010B5044600F06CF902
:101760000146204600F04AF80121024800F046F800
:1017700010BD00BFAC240008F0B585B00C461C4B72
:101780001B6813F0010F01D108462EE00546194BE6
:101790001B6883B9184B019304230293032303931B
:1017A00001AF012630463946ABBE0646B6F1FF3FD3
:1017B00013D0104B1E600F4B1B68019302950394CE
:1017C00001AE052528463146ABBE0546B5F1FF3FC3
:1017D00006D0A54207D0601B07E04FF0FF3004E0C1
:1017E0004FF0FF3001E04FF0FF3005B0F0BD00BF1B
:1017F000F0ED00E018010020DC24000808B5FFF738
:10180000BBFF08BD08B500F001F808BD0C4B1A6815
:1018100042F001021A60002199601A6822F0847275
:1018200022F480321A60074A5A601A6822F4802231
:101830001A60D9604FF00062034B9A60704700BF96
:10184000003802401030002400ED00E0234B9B687C
:1018500003F00C03042B07D0082B09D0002B2DD14B
:101860001F4A204B1A602CE01F4A1E4B1A6028E0CA
:101870001A4B5A685B6803F03F0312F4800F09D0DB
:10188000194AB2FBF3F2154B5B68C3F3881303FBF1
:1018900002F208E0124AB2FBF3F3104A5168C1F3B6
:1018A000881101FB03F20D4B5B68C3F30143013365
:1018B0005B00B2FBF3F30B4A136002E0084A094BEA
:1018C0001A60064B9B68C3F30313084AD35CDAB271
:1018D00004490B68D3400B60704700BF00380240DA
:1018E0000024F4001C00002000127A000C000020EC
:1018F00008B50848084B03604FF4165343600023B3
:101900008360C36003610C2242618361FFF7E8FDDD
:1019100008BD00BF280100200044004010B592B06F
:101920001C4A136C43F080531364A2F5E43213682D
:1019300043F4404313600123069307934FF480035D
:101940000D9308230E934FF4A8730F930224109461
:10195000072311930C9406A8FEF734FF0F2301937D
:101960000294002303934FF4A05304934FF4805345
:101970000593052101A8FFF77FF9FFF76FFB064BE1
:10198000A3FB00308009FEF771FD0420FEF784FD03
:1019900012B010BD00380240D34D621008B5FFF7F9
:1019A00035FFFEF7E3FCFFF7B9FFFFF74FFFFFF747
:1019B0009FFF08BD0268104B9A421BD100B587B04B
:1019C00003F5FA331A6B42F008021A631A6C42F4F8
:1019D00000321A64602301930223029300230393CD
:1019E00004930723059301A90448FEF771FD07B08E
:1019F0005DF804FB704700BF00440040000C02404B
:101A000010B50748FFF7A8FE064C204600F014F872
:101A10004FF6FF7382B221460348FFF7CFFDF0E790
:101A2000E0240008F424000828010020014B186875
:101A3000704700BF80000020034613F8012B002AE6
:101A4000FBD1181A0138704730B5141E05469BB0FB
:101A5000184604DA8B232B604FF0FF301DE04FF463
:101A60000273ADF80C3014BF04F1FF332346029328
:101A700005934FF6FF7300910491ADF80E300246C6
:101A80001E9B6946284600F073F8431CBCBF8B239D
:101A90002B6014B1009B00221A701BB030BD0000F7
:101AA00007B5009313460A46014603480068FFF74E
:101AB000CBFF03B05DF804FB800000202DE9F04768
:101AC0008E689E4282460C46914698463ED88A8948
:101AD00012F4906F3AD0256809696F1A656902237C
:101AE00005EB450595FBF3F57B1C43449D4238BF50
:101AF0001D4653050FD5294600F08EFB064698B1CA
:101B00003A46216900F014FBA38923F4906343F063
:101B10008003A38113E02A4600F0DCFB064670B97F
:101B20002169504600F02AFB0C23CAF80030A38933
:101B300043F04003A3814FF0FF30BDE8F0872661FA
:101B400065613E44ED1B2660A5604646464528BFBC
:101B5000464632464946206800F0F5FAA3689B1BCA
:101B6000A36023681E4426600020BDE8F0870000C3
:101B70002DE9F04F9DB0804603938B891C060D46DE
:101B800016460DD50B695BB9402100F045FB286076
:101B9000286118B90C23C8F80030CDE040236B61F0
:101BA0000023099320238DF82930DFF89CB13023DE
:101BB0008DF82A3037463C4614F8013B1BB9B7EB89
:101BC000060910D003E0252BF9D02746F3E74B4652
:101BD000324629464046FFF771FF013000F0A780EA
:101BE000099B4B4409933B78002B00F0A080002315
:101BF0004FF0FF3204930793059206938DF853300C
:101C00001A930126052221784E4800F041FA671CFC
:101C1000049B38B14B4A801A06FA00F0184304902E
:101C20003C46EFE7D90644BF20228DF853201A071F
:101C300044BF2B228DF8532022782A2A03D0079AFA
:101C400000210A200BE0039A111D12680391002A5B
:101C500010DA524243F00200079204900BE027464C
:101C600001343B78303B092B03D800FB02320121C1
:101C7000F5E701B107923B782E2B1ED17B782A2BFA
:101C80000AD1039B1A1D1B680392002BB8BF4FF0AB
:101C9000FF330237059310E000230593781C1946A3
:101CA0000A24074601303A78303A092A03D804FB5F
:101CB00001210123F5E703B1059103223978224878
:101CC00000F0E6F940B14023CBEB000003FA00F04E
:101CD000049B18430490013739781C488DF828106C
:101CE00006227E1C00F0D4F988B1194B33B9039B4E
:101CF000073323F007030833039314E003AB009387
:101D00002A46144B04A94046AFF3008007E003AB1A
:101D100000932A460F4B04A9404600F093F8B0F117
:101D2000FF3F824603D0099B5344099342E7AB89A6
:101D30005B0601D4099801E04FF0FF301DB0BDE80B
:101D4000F08F00BF0C25000812250008162500089A
:101D500000000000BD1A00082DE9F04791461F461B
:101D60000A698B68DDF820809342B8BF1346C9F832
:101D7000003091F8432006460C4612B10133C9F8F1
:101D800000302368990642BFD9F800300233C9F801
:101D90000030256815F0060510D104F1190A07E096
:101DA0000123524639463046C04701301AD001352A
:101DB000E368D9F800209B1A9D42F1DB94F8433088
:101DC0002268003318BF012392060FD5E1185A1C70
:101DD000302081F84300224494F8451082F84310E3
:101DE000023303E04FF0FF30BDE8F08704F1430217
:101DF00039463046C0470130F4D02268D9F8005047
:101E0000E36802F00602042A08BF5D1B2269A3688A
:101E10000CBF25EAE57500259342C4BF9B1AED1857
:101E20004FF000091A344D4509D0012322463946A6
:101E30003046C0470130D5D009F10109F3E7002051
:101E4000BDE8F0872DE9F04317460A7E85B06E2A7B
:101E5000984606460C460C9B01F1430E00F0AE80FE
:101E600011D8632A22D009D8002A00F0BB80582A52
:101E700040F0CA8081F84520834955E0642A1ED08D
:101E8000692A1CD0C0E0732A00F0B08009D86F2AFC
:101E90002ED0702A40F0B8800A6842F020020A6012
:101EA0003EE0752A24D0782A3AD0ADE01A6801F1D4
:101EB0004205111D1960136884F84230A8E02168BA
:101EC0001A6811F0800F02D0111D196008E011F09E
:101ED000400F02F10401196002D0B2F9003000E0B5
:101EE0001368002B3CDA2D225B4284F8432037E054
:101EF00021681A6811F0800F02D0111D196007E0E7
:101F000011F0400F02F10401196001D0138800E0C4
:101F10001368227E5C496F2A14BF0A2208221BE044
:101F200078225A4984F845202268186812F0800FF8
:101F300000F104051D6003D1550601D5038800E0BA
:101F40000368D00744BF42F0200222601BB9226818
:101F500022F0200222601022002084F8430001E0D9
:101F600049490A226568A560002D08DB206820F039
:101F7000040020602BB9002D7DD175460CE0002BAC
:101F800079D07546B3FBF2F002FB1033CB5C05F859
:101F9000013D03460028F5D1082A0BD12368DA0752
:101FA00008D5236962689A42DEBF302305F8013CF8
:101FB00005F1FF35C5EB0E0323612EE008681A68B2
:101FC000496910F0800F03D0101D1860136808E0F5
:101FD00010F0400F02F104001860136801D019805E
:101FE00000E0196000232361754616E01A68111D90
:101FF0001960156862680021284600F049F808B1A8
:10200000401B6060636804E004F1420584F84220EC
:1020100001232361002384F84330CDF800803B4640
:1020200003AA21463046FFF797FE013002D14FF058
:10203000FF3026E023692A4639463046C047013042
:10204000F5D023689B0710D5002504F1190907E096
:1020500001234A4639463046C0470130E7D00135B2
:10206000E368039A9B1A9D42F2DBE068039B984267
:10207000B8BF184605E00B7884F8423004F14205F9
:102080008AE705B0BDE8F0831D2500082E2500086D
:1020900001F0FF01102A2BDB10F0070F08D010F819
:1020A000013B013A8B422DD010F0070F42B3F6D11D
:1020B000F0B441EA012141EA014122F007047FF036
:1020C00000070023F0E80256083C85EA010586EA8D
:1020D000010685FA47F5A3FA87F586FA47F6A5FAC9
:1020E00087F68EB9EED1F0BC01F0FF0102F00702D5
:1020F00032B110F8013B013A83EA010313B1F8D180
:102100000020704701387047002D06BF3546033860
:10211000073815F0010F07D1013015F4807F02BF99
:10212000013015F4C03F0130F0BC0138704700BFEA
:1021300010B5431E0A44914204D011F8014B03F834
:10214000014FF8E710BD884210B501EB020301D83A
:10215000421E0BE09842FBD28118D21AD34204D01F
:1021600013F8014D01F8014DF8E710BD994204D074
:1021700011F8014B02F8014FF8E710BD38B50546DC
:10218000002946D051F8043C0C1F002BB8BFE418BE
:1021900000F0D6F81F4A1368114613B96360146043
:1021A00032E0A3420ED92268A018834204BF186807
:1021B0005B68636004BF121822600C6024E0A242D6
:1021C00003D813465A68002AF9D118681918A14291
:1021D0000BD12168014458188242196014D110684B
:1021E00052685A60014419600EE002D90C232B603A
:1021F0000AE021686018824204BF10685268626079
:1022000004BF091821605C602846BDE8384000F032
:1022100098B838BD2001002070B5CD1C25F003050D
:1022200008350C2D38BF0C25002D064601DBA942D0
:1022300002D90C23336046E000F082F8234B1C687F
:102240001A462146A1B10B685B1B0ED40B2B03D998
:102250000B60CC18CD501EE08C420DBF63684B68FC
:102260006360136018BF0C4615E00C464968E9E747
:10227000174C23681BB9304600F052F820602946FD
:10228000304600F04DF8431C18D0C41C24F0030461
:10229000A0420DD12560304600F053F804F10B0048
:1022A000231D20F00700C31A0ED05A42E25070BD21
:1022B000211A304600F034F80130EBD10C233360A2
:1022C000304600F03EF8002070BD00BF2001002025
:1022D0001C010020F8B5074615460E4621B91146E7
:1022E000BDE8F840FFF798BF1AB9FFF747FF284647
:1022F000F8BD00F027F885420ED929463846FFF789
:102300008BFF044650B131462A46FFF711FF314694
:102310003846FFF733FF01E03046F8BD2046F8BDF0
:1023200038B5064C0023054608462360FFF7C8F978
:10233000431C02D1236803B12B6038BD2401002067
:102340007047704751F8040C0028BEBF091851F8B7
:10235000043CC018043870472E2E2F7379737465AF
:102360006D2F7372632F73746D333266342D686111
:102370006C2F73746D3332663478785F68616C5F8C
:10238000636F727465782E63000000002E2E2F7329
:10239000797374656D2F7372632F73746D33326646
:1023A000342D68616C2F73746D3332663478785FC6
:1023B00068616C5F6770696F2E6300000000000049
:1023C0000102030401020304060708092E2E2F73DD
:1023D000797374656D2F7372632F73746D33326606
:1023E000342D68616C2F73746D3332663478785F86
:1023F00068616C5F7263632E630000002E2E2F7382
:10240000797374656D2F7372632F73746D333266D5
:10241000342D68616C2F73746D3332663478785F55
:1024200068616C5F756172742E63000061626F7227
:102430007428292C2065786974696E672E2E2E0009
:102440002C2066756E6374696F6E3A200000000080
:10245000617373657274696F6E2022257322206622
:1024600061696C65643A2066696C65202225732277
:102470002C206C696E65202564257325730A000085
:102480006173736572745F706172616D2829206673
:1024900061696C65643A2066696C65202225732247
:1024A0002C206C696E652025640A00000A0000007B
:1024B0006D61696E28617267633D25642C206172CD
:1024C00067763D5B000000002C200000222573226F
:1024D000000000005D293B0A000000003A7474000F
:1024E00055415254207472616E736D6974204D476A
:1024F0000000000048656C6C6F20576F726C6420A0
:102500004D476F72612121210D0A0000232D302BD0
:102510002000686C4C0065666745464700303132E4
:10252000333435363738394142434445460030313B
:0F2530003233343536373839616263646566009B
:1025400078563412940000200000000000000000C3
:102550000000000001020304060708090024F4003B
:10256000000000000000000000000000000000006B
:10257000000000000000000000000000000000005B
:10258000000000000000000000000000000000004B
:10259000000000000000000000000000000000003B
:1025A000000000000000000000000000000000002B
:1025B000000000000000000000000000000000001B
:0825C00020000020325476983F
:04000005080001AD41
:00000001FF
